{
  "contractName": "BSBack",
  "abi": [
    {
      "inputs": [
        {
          "internalType": "contract DaiToken",
          "name": "_daiToken",
          "type": "address"
        }
      ],
      "payable": false,
      "stateMutability": "nonpayable",
      "type": "constructor"
    },
    {
      "constant": true,
      "inputs": [],
      "name": "admin",
      "outputs": [
        {
          "internalType": "address",
          "name": "",
          "type": "address"
        }
      ],
      "payable": false,
      "stateMutability": "view",
      "type": "function"
    },
    {
      "constant": true,
      "inputs": [],
      "name": "daiToken",
      "outputs": [
        {
          "internalType": "contract DaiToken",
          "name": "",
          "type": "address"
        }
      ],
      "payable": false,
      "stateMutability": "view",
      "type": "function"
    },
    {
      "constant": true,
      "inputs": [],
      "name": "name",
      "outputs": [
        {
          "internalType": "string",
          "name": "",
          "type": "string"
        }
      ],
      "payable": false,
      "stateMutability": "view",
      "type": "function"
    },
    {
      "constant": false,
      "inputs": [
        {
          "internalType": "string",
          "name": "_username",
          "type": "string"
        }
      ],
      "name": "addUser",
      "outputs": [],
      "payable": false,
      "stateMutability": "nonpayable",
      "type": "function"
    },
    {
      "constant": false,
      "inputs": [
        {
          "internalType": "uint256",
          "name": "_amount",
          "type": "uint256"
        }
      ],
      "name": "buyCoins",
      "outputs": [],
      "payable": false,
      "stateMutability": "nonpayable",
      "type": "function"
    },
    {
      "constant": false,
      "inputs": [
        {
          "internalType": "uint256",
          "name": "_amount",
          "type": "uint256"
        }
      ],
      "name": "sellCoins",
      "outputs": [],
      "payable": false,
      "stateMutability": "nonpayable",
      "type": "function"
    },
    {
      "constant": false,
      "inputs": [
        {
          "internalType": "address",
          "name": "_account",
          "type": "address"
        },
        {
          "internalType": "uint256",
          "name": "_cost",
          "type": "uint256"
        }
      ],
      "name": "playGame",
      "outputs": [],
      "payable": false,
      "stateMutability": "nonpayable",
      "type": "function"
    },
    {
      "constant": false,
      "inputs": [
        {
          "internalType": "address",
          "name": "_account",
          "type": "address"
        },
        {
          "internalType": "uint256",
          "name": "_amount",
          "type": "uint256"
        }
      ],
      "name": "collectWinnings",
      "outputs": [],
      "payable": false,
      "stateMutability": "nonpayable",
      "type": "function"
    },
    {
      "constant": false,
      "inputs": [
        {
          "internalType": "address",
          "name": "_account",
          "type": "address"
        }
      ],
      "name": "getUsername",
      "outputs": [
        {
          "internalType": "string",
          "name": "",
          "type": "string"
        }
      ],
      "payable": false,
      "stateMutability": "nonpayable",
      "type": "function"
    },
    {
      "constant": false,
      "inputs": [
        {
          "internalType": "address",
          "name": "_account",
          "type": "address"
        }
      ],
      "name": "getBalance",
      "outputs": [
        {
          "internalType": "uint256",
          "name": "",
          "type": "uint256"
        }
      ],
      "payable": false,
      "stateMutability": "nonpayable",
      "type": "function"
    },
    {
      "constant": false,
      "inputs": [
        {
          "internalType": "address",
          "name": "_account",
          "type": "address"
        }
      ],
      "name": "getKills",
      "outputs": [
        {
          "internalType": "uint256",
          "name": "",
          "type": "uint256"
        }
      ],
      "payable": false,
      "stateMutability": "nonpayable",
      "type": "function"
    },
    {
      "constant": false,
      "inputs": [
        {
          "internalType": "address",
          "name": "_account",
          "type": "address"
        }
      ],
      "name": "getDeaths",
      "outputs": [
        {
          "internalType": "uint256",
          "name": "",
          "type": "uint256"
        }
      ],
      "payable": false,
      "stateMutability": "nonpayable",
      "type": "function"
    }
  ],
  "bytecode": "0x60806040526040518060400160405280600a81526020017f4253204261636b656e64000000000000000000000000000000000000000000008152506000908051906020019061004f92919061011a565b5034801561005c57600080fd5b506040516200118a3803806200118a8339818101604052602081101561008157600080fd5b810190808051906020019092919050505033600160006101000a81548173ffffffffffffffffffffffffffffffffffffffff021916908373ffffffffffffffffffffffffffffffffffffffff16021790555080600260006101000a81548173ffffffffffffffffffffffffffffffffffffffff021916908373ffffffffffffffffffffffffffffffffffffffff160217905550506101bf565b828054600181600116156101000203166002900490600052602060002090601f016020900481019282601f1061015b57805160ff1916838001178555610189565b82800160010185558215610189579182015b8281111561018857825182559160200191906001019061016d565b5b509050610196919061019a565b5090565b6101bc91905b808211156101b85760008160009055506001016101a0565b5090565b90565b610fbb80620001cf6000396000f3fe608060405234801561001057600080fd5b50600436106100b45760003560e01c8063cb25db8011610071578063cb25db80146102d3578063ce43c03214610321578063f3e7a505146103de578063f851a44014610436578063f8b2cb4f14610480578063fe468196146104d8576100b4565b806306fdde03146100b957806318b8275a1461013c57806351a4cd73146101b55780636c587491146101e3578063ac44c24f14610231578063be22f54614610289575b600080fd5b6100c1610506565b6040518080602001828103825283818151815260200191508051906020019080838360005b838110156101015780820151818401526020810190506100e6565b50505050905090810190601f16801561012e5780820380516001836020036101000a031916815260200191505b509250505060405180910390f35b6101b36004803603602081101561015257600080fd5b810190808035906020019064010000000081111561016f57600080fd5b82018360208201111561018157600080fd5b803590602001918460018302840111640100000000831117156101a357600080fd5b90919293919293905050506105a4565b005b6101e1600480360360208110156101cb57600080fd5b81019080803590602001909291905050506106d2565b005b61022f600480360360408110156101f957600080fd5b81019080803573ffffffffffffffffffffffffffffffffffffffff169060200190929190803590602001909291905050506108a3565b005b6102736004803603602081101561024757600080fd5b81019080803573ffffffffffffffffffffffffffffffffffffffff1690602001909291905050506109ad565b6040518082815260200191505060405180910390f35b6102916109fb565b604051808273ffffffffffffffffffffffffffffffffffffffff1673ffffffffffffffffffffffffffffffffffffffff16815260200191505060405180910390f35b61031f600480360360408110156102e957600080fd5b81019080803573ffffffffffffffffffffffffffffffffffffffff16906020019092919080359060200190929190505050610a21565b005b6103636004803603602081101561033757600080fd5b81019080803573ffffffffffffffffffffffffffffffffffffffff169060200190929190505050610b38565b6040518080602001828103825283818151815260200191508051906020019080838360005b838110156103a3578082015181840152602081019050610388565b50505050905090810190601f1680156103d05780820380516001836020036101000a031916815260200191505b509250505060405180910390f35b610420600480360360208110156103f457600080fd5b81019080803573ffffffffffffffffffffffffffffffffffffffff169060200190929190505050610c1c565b6040518082815260200191505060405180910390f35b61043e610c6a565b604051808273ffffffffffffffffffffffffffffffffffffffff1673ffffffffffffffffffffffffffffffffffffffff16815260200191505060405180910390f35b6104c26004803603602081101561049657600080fd5b81019080803573ffffffffffffffffffffffffffffffffffffffff169060200190929190505050610c90565b6040518082815260200191505060405180910390f35b610504600480360360208110156104ee57600080fd5b8101908080359060200190929190505050610cde565b005b60008054600181600116156101000203166002900480601f01602080910402602001604051908101604052809291908181526020018280546001816001161561010002031660029004801561059c5780601f106105715761010080835404028352916020019161059c565b820191906000526020600020905b81548152906001019060200180831161057f57829003601f168201915b505050505081565b8181600360003373ffffffffffffffffffffffffffffffffffffffff1673ffffffffffffffffffffffffffffffffffffffff16815260200190815260200160002060010191906105f5929190610ec0565b506000600360003373ffffffffffffffffffffffffffffffffffffffff1673ffffffffffffffffffffffffffffffffffffffff168152602001908152602001600020600301819055506000600360003373ffffffffffffffffffffffffffffffffffffffff1673ffffffffffffffffffffffffffffffffffffffff168152602001908152602001600020600401819055506000600360003373ffffffffffffffffffffffffffffffffffffffff1673ffffffffffffffffffffffffffffffffffffffff168152602001908152602001600020600501819055505050565b6000600360003373ffffffffffffffffffffffffffffffffffffffff1673ffffffffffffffffffffffffffffffffffffffff168152602001908152602001600020600501549050818111610771576040517f08c379a0000000000000000000000000000000000000000000000000000000008152600401808060200182810382526021815260200180610f666021913960400191505060405180910390fd5b600260009054906101000a900473ffffffffffffffffffffffffffffffffffffffff1673ffffffffffffffffffffffffffffffffffffffff1663a9059cbb33846040518363ffffffff1660e01b8152600401808373ffffffffffffffffffffffffffffffffffffffff1673ffffffffffffffffffffffffffffffffffffffff16815260200182815260200192505050602060405180830381600087803b15801561081a57600080fd5b505af115801561082e573d6000803e3d6000fd5b505050506040513d602081101561084457600080fd5b810190808051906020019092919050505050818103600360003373ffffffffffffffffffffffffffffffffffffffff1673ffffffffffffffffffffffffffffffffffffffff168152602001908152602001600020600501819055505050565b6000600360008473ffffffffffffffffffffffffffffffffffffffff1673ffffffffffffffffffffffffffffffffffffffff16815260200190815260200160002060050154905081811161095f576040517f08c379a00000000000000000000000000000000000000000000000000000000081526004018080602001828103825260188152602001807f4e6f7420656e6f75676820636f696e7320746f20706c6179000000000000000081525060200191505060405180910390fd5b818103600360008573ffffffffffffffffffffffffffffffffffffffff1673ffffffffffffffffffffffffffffffffffffffff16815260200190815260200160002060050181905550505050565b600080600360003373ffffffffffffffffffffffffffffffffffffffff1673ffffffffffffffffffffffffffffffffffffffff16815260200190815260200160002060030181905550919050565b600260009054906101000a900473ffffffffffffffffffffffffffffffffffffffff1681565b600160009054906101000a900473ffffffffffffffffffffffffffffffffffffffff1673ffffffffffffffffffffffffffffffffffffffff163373ffffffffffffffffffffffffffffffffffffffff1614610ae4576040517f08c379a00000000000000000000000000000000000000000000000000000000081526004018080602001828103825260188152602001807f63616c6c6572206d75737420626520746865206f776e6572000000000000000081525060200191505060405180910390fd5b80600360008473ffffffffffffffffffffffffffffffffffffffff1673ffffffffffffffffffffffffffffffffffffffff168152602001908152602001600020600501600082825401925050819055505050565b6060600360008373ffffffffffffffffffffffffffffffffffffffff1673ffffffffffffffffffffffffffffffffffffffff1681526020019081526020016000206001018054600181600116156101000203166002900480601f016020809104026020016040519081016040528092919081815260200182805460018160011615610100020316600290048015610c105780601f10610be557610100808354040283529160200191610c10565b820191906000526020600020905b815481529060010190602001808311610bf357829003601f168201915b50505050509050919050565b600080600360003373ffffffffffffffffffffffffffffffffffffffff1673ffffffffffffffffffffffffffffffffffffffff16815260200190815260200160002060040181905550919050565b600160009054906101000a900473ffffffffffffffffffffffffffffffffffffffff1681565b600080600360003373ffffffffffffffffffffffffffffffffffffffff1673ffffffffffffffffffffffffffffffffffffffff16815260200190815260200160002060050181905550919050565b60008111610d54576040517f08c379a00000000000000000000000000000000000000000000000000000000081526004018080602001828103825260128152602001807f616d6f756e742063616e6e6f742062652030000000000000000000000000000081525060200191505060405180910390fd5b600260009054906101000a900473ffffffffffffffffffffffffffffffffffffffff1673ffffffffffffffffffffffffffffffffffffffff166323b872dd3330846040518463ffffffff1660e01b8152600401808473ffffffffffffffffffffffffffffffffffffffff1673ffffffffffffffffffffffffffffffffffffffff1681526020018373ffffffffffffffffffffffffffffffffffffffff1673ffffffffffffffffffffffffffffffffffffffff1681526020018281526020019350505050602060405180830381600087803b158015610e3157600080fd5b505af1158015610e45573d6000803e3d6000fd5b505050506040513d6020811015610e5b57600080fd5b81019080805190602001909291905050505080600360003373ffffffffffffffffffffffffffffffffffffffff1673ffffffffffffffffffffffffffffffffffffffff1681526020019081526020016000206005016000828254019250508190555050565b828054600181600116156101000203166002900490600052602060002090601f016020900481019282601f10610f0157803560ff1916838001178555610f2f565b82800160010185558215610f2f579182015b82811115610f2e578235825591602001919060010190610f13565b5b509050610f3c9190610f40565b5090565b610f6291905b80821115610f5e576000816000905550600101610f46565b5090565b9056fe43616e6e6f742073656c6c206d6f726520636f696e73207468616e206f776e6564a265627a7a723158202db31aa451b8857253d0dd04e9b73015f90a4b15fc29f1c05e843e0d8c79c24064736f6c63430005100032",
  "source": "pragma solidity ^0.5.0;\r\n\r\nimport \"./DaiToken.sol\";\r\n// import \"@openzeppelin/contracts/token/ERC20/IERC20.sol\";\r\n\r\ncontract BSBack {\r\n    string public name = \"BS Backend\";\r\n    address public admin;\r\n    DaiToken public daiToken;\r\n    // address constant DAI = 0x6b175474e89094c44da98b954eedeac495271d0f;\r\n\r\n\r\n    struct Player {\r\n        address payable wallet;\r\n        string username;\r\n        string password;\r\n        uint kills;\r\n        uint deaths;\r\n        uint balance;\r\n    }\r\n    \r\n    mapping(address => Player) internal players;\r\n\r\n    constructor(DaiToken _daiToken) public {\r\n        admin = msg.sender;\r\n        daiToken = _daiToken;\r\n    }\r\n    \r\n    modifier onlyAdmin() {\r\n        // Only owner can call this function\r\n        require(msg.sender == admin, \"caller must be the owner\");\r\n        _;\r\n    }\r\n\r\n    function addUser(string calldata _username) external {\r\n        players[msg.sender].username = _username;\r\n        players[msg.sender].kills = 0;\r\n        players[msg.sender].deaths = 0;\r\n        players[msg.sender].balance = 0;\r\n    }\r\n\r\n    function buyCoins(uint _amount) external {\r\n        // Require amount greater than 0\r\n        require(_amount > 0, \"amount cannot be 0\");\r\n\r\n        // Trasnfer Mock Dai tokens to this contract for staking\r\n        daiToken.transferFrom(msg.sender, address(this), _amount);\r\n\r\n        // Update staking balance\r\n        players[msg.sender].balance += _amount;\r\n    }\r\n\r\n    // Unstaking Tokens (Withdraw)\r\n    function sellCoins(uint _amount) external {\r\n        // Fetch staking balance\r\n        uint balance = players[msg.sender].balance;\r\n\r\n        // Require amount greater than 0\r\n        require(balance > _amount, \"Cannot sell more coins than owned\");\r\n\r\n        // Transfer Mock Dai tokens to this contract for staking\r\n        daiToken.transfer(msg.sender, _amount);\r\n\r\n        // Reset staking balance\r\n        players[msg.sender].balance = balance - _amount;\r\n    }\r\n\r\n    function playGame(address _account, uint _cost) external  {\r\n        uint balance = players[_account].balance;\r\n        require(balance > _cost, \"Not enough coins to play\");\r\n        players[_account].balance = balance - _cost;\r\n    }\r\n\r\n    function collectWinnings(address _account, uint _amount) external onlyAdmin() {\r\n        players[_account].balance += _amount;\r\n    }\r\n\r\n    function getUsername(address _account) external returns(string memory){\r\n        return players[_account].username;\r\n    }\r\n\r\n    function getBalance(address _account) external returns(uint){\r\n        players[msg.sender].balance = 0;\r\n    }\r\n\r\n    function getKills(address _account) external returns(uint){\r\n        players[msg.sender].kills = 0;\r\n    }\r\n\r\n    function getDeaths(address _account) external returns(uint){\r\n        players[msg.sender].deaths = 0;\r\n    }\r\n}\r\n",
  "sourcePath": "C:/Users/kstam/workspace/defi_tutorial/src/contracts/BSBack.sol",
  "compiler": {
    "name": "solc",
    "version": "0.5.16+commit.9c3226ce.Emscripten.clang"
  },
  "schemaVersion": "3.2.4",
  "updatedAt": "2020-10-28T08:56:19.920Z",
  "networkType": "ethereum",
  "devdoc": {
    "methods": {}
  },
  "userdoc": {
    "methods": {}
  }
}