{
  "contractName": "BSBack",
  "abi": [
    {
      "inputs": [
        {
          "internalType": "contract DaiToken",
          "name": "_daiToken",
          "type": "address"
        }
      ],
      "payable": false,
      "stateMutability": "nonpayable",
      "type": "constructor"
    },
    {
      "constant": true,
      "inputs": [],
      "name": "admin",
      "outputs": [
        {
          "internalType": "address",
          "name": "",
          "type": "address"
        }
      ],
      "payable": false,
      "stateMutability": "view",
      "type": "function"
    },
    {
      "constant": true,
      "inputs": [
        {
          "internalType": "uint256",
          "name": "",
          "type": "uint256"
        }
      ],
      "name": "allPlayers",
      "outputs": [
        {
          "internalType": "string",
          "name": "",
          "type": "string"
        }
      ],
      "payable": false,
      "stateMutability": "view",
      "type": "function"
    },
    {
      "constant": true,
      "inputs": [],
      "name": "daiToken",
      "outputs": [
        {
          "internalType": "contract DaiToken",
          "name": "",
          "type": "address"
        }
      ],
      "payable": false,
      "stateMutability": "view",
      "type": "function"
    },
    {
      "constant": true,
      "inputs": [],
      "name": "name",
      "outputs": [
        {
          "internalType": "string",
          "name": "",
          "type": "string"
        }
      ],
      "payable": false,
      "stateMutability": "view",
      "type": "function"
    },
    {
      "constant": false,
      "inputs": [
        {
          "internalType": "string",
          "name": "_username",
          "type": "string"
        },
        {
          "internalType": "string",
          "name": "_password",
          "type": "string"
        }
      ],
      "name": "addUser",
      "outputs": [],
      "payable": false,
      "stateMutability": "nonpayable",
      "type": "function"
    },
    {
      "constant": false,
      "inputs": [
        {
          "internalType": "string",
          "name": "_username",
          "type": "string"
        },
        {
          "internalType": "uint256",
          "name": "_amount",
          "type": "uint256"
        }
      ],
      "name": "buyCoins",
      "outputs": [],
      "payable": false,
      "stateMutability": "nonpayable",
      "type": "function"
    },
    {
      "constant": false,
      "inputs": [
        {
          "internalType": "string",
          "name": "_username",
          "type": "string"
        },
        {
          "internalType": "uint256",
          "name": "_amount",
          "type": "uint256"
        }
      ],
      "name": "sellCoins",
      "outputs": [],
      "payable": false,
      "stateMutability": "nonpayable",
      "type": "function"
    },
    {
      "constant": false,
      "inputs": [
        {
          "internalType": "string",
          "name": "_username",
          "type": "string"
        },
        {
          "internalType": "uint256",
          "name": "_cost",
          "type": "uint256"
        }
      ],
      "name": "playGame",
      "outputs": [],
      "payable": false,
      "stateMutability": "nonpayable",
      "type": "function"
    },
    {
      "constant": false,
      "inputs": [
        {
          "internalType": "string",
          "name": "_username",
          "type": "string"
        },
        {
          "internalType": "uint256",
          "name": "_amount",
          "type": "uint256"
        }
      ],
      "name": "collectWinnings",
      "outputs": [],
      "payable": false,
      "stateMutability": "nonpayable",
      "type": "function"
    },
    {
      "constant": true,
      "inputs": [
        {
          "internalType": "string",
          "name": "_username",
          "type": "string"
        }
      ],
      "name": "getUsername",
      "outputs": [
        {
          "internalType": "string",
          "name": "",
          "type": "string"
        }
      ],
      "payable": false,
      "stateMutability": "view",
      "type": "function"
    },
    {
      "constant": true,
      "inputs": [
        {
          "internalType": "string",
          "name": "_username",
          "type": "string"
        }
      ],
      "name": "getPass",
      "outputs": [
        {
          "internalType": "string",
          "name": "",
          "type": "string"
        }
      ],
      "payable": false,
      "stateMutability": "view",
      "type": "function"
    },
    {
      "constant": false,
      "inputs": [
        {
          "internalType": "string",
          "name": "_username",
          "type": "string"
        },
        {
          "internalType": "string",
          "name": "_pass",
          "type": "string"
        }
      ],
      "name": "setPass",
      "outputs": [],
      "payable": false,
      "stateMutability": "nonpayable",
      "type": "function"
    },
    {
      "constant": true,
      "inputs": [
        {
          "internalType": "string",
          "name": "_username",
          "type": "string"
        }
      ],
      "name": "getBalance",
      "outputs": [
        {
          "internalType": "uint256",
          "name": "",
          "type": "uint256"
        }
      ],
      "payable": false,
      "stateMutability": "view",
      "type": "function"
    },
    {
      "constant": true,
      "inputs": [
        {
          "internalType": "string",
          "name": "_username",
          "type": "string"
        }
      ],
      "name": "getPlaying",
      "outputs": [
        {
          "internalType": "bool",
          "name": "",
          "type": "bool"
        }
      ],
      "payable": false,
      "stateMutability": "view",
      "type": "function"
    }
  ],
  "bytecode": "0x60806040526040518060400160405280600a81526020017f4253204261636b656e640000000000000000000000000000000000000000000081525060009080519060200190620000519291906200011f565b503480156200005f57600080fd5b50604051620018f1380380620018f1833981810160405260208110156200008557600080fd5b810190808051906020019092919050505033600160006101000a81548173ffffffffffffffffffffffffffffffffffffffff021916908373ffffffffffffffffffffffffffffffffffffffff16021790555080600260006101000a81548173ffffffffffffffffffffffffffffffffffffffff021916908373ffffffffffffffffffffffffffffffffffffffff16021790555050620001ce565b828054600181600116156101000203166002900490600052602060002090601f016020900481019282601f106200016257805160ff191683800117855562000193565b8280016001018555821562000193579182015b828111156200019257825182559160200191906001019062000175565b5b509050620001a29190620001a6565b5090565b620001cb91905b80821115620001c7576000816000905550600101620001ad565b5090565b90565b61171380620001de6000396000f3fe608060405234801561001057600080fd5b50600436106100ea5760003560e01c80639b75f76d1161008c578063d76ba3c111610066578063d76ba3c114610707578063f851a44014610798578063fe66d178146107e2578063ff529b80146108d4576100ea565b80639b75f76d1461056c578063be22f546146105ef578063c055fcd414610639576100ea565b8063300229cb116100c8578063300229cb146102e75780633a51d2461461036a57806364e5f75c146103f75780637cdbc78f146104e9576100ea565b80630544ce5e146100ef57806306fdde0314610196578063079eaf3414610219575b600080fd5b61011b6004803603602081101561010557600080fd5b8101908080359060200190929190505050610957565b6040518080602001828103825283818151815260200191508051906020019080838360005b8381101561015b578082015181840152602081019050610140565b50505050905090810190601f1680156101885780820380516001836020036101000a031916815260200191505b509250505060405180910390f35b61019e610a10565b6040518080602001828103825283818151815260200191508051906020019080838360005b838110156101de5780820151818401526020810190506101c3565b50505050905090810190601f16801561020b5780820380516001836020036101000a031916815260200191505b509250505060405180910390f35b6102e56004803603604081101561022f57600080fd5b810190808035906020019064010000000081111561024c57600080fd5b82018360208201111561025e57600080fd5b8035906020019184600183028401116401000000008311171561028057600080fd5b9091929391929390803590602001906401000000008111156102a157600080fd5b8201836020820111156102b357600080fd5b803590602001918460018302840111640100000000831117156102d557600080fd5b9091929391929390505050610aae565b005b610368600480360360408110156102fd57600080fd5b810190808035906020019064010000000081111561031a57600080fd5b82018360208201111561032c57600080fd5b8035906020019184600183028401116401000000008311171561034e57600080fd5b909192939192939080359060200190929190505050610c04565b005b6103e16004803603602081101561038057600080fd5b810190808035906020019064010000000081111561039d57600080fd5b8201836020820111156103af57600080fd5b803590602001918460018302840111640100000000831117156103d157600080fd5b9091929391929390505050610d47565b6040518082815260200191505060405180910390f35b61046e6004803603602081101561040d57600080fd5b810190808035906020019064010000000081111561042a57600080fd5b82018360208201111561043c57600080fd5b8035906020019184600183028401116401000000008311171561045e57600080fd5b9091929391929390505050610d7c565b6040518080602001828103825283818151815260200191508051906020019080838360005b838110156104ae578082015181840152602081019050610493565b50505050905090810190601f1680156104db5780820380516001836020036101000a031916815260200191505b509250505060405180910390f35b61056a600480360360408110156104ff57600080fd5b810190808035906020019064010000000081111561051c57600080fd5b82018360208201111561052e57600080fd5b8035906020019184600183028401116401000000008311171561055057600080fd5b909192939192939080359060200190929190505050610e49565b005b6105ed6004803603604081101561058257600080fd5b810190808035906020019064010000000081111561059f57600080fd5b8201836020820111156105b157600080fd5b803590602001918460018302840111640100000000831117156105d357600080fd5b909192939192939080359060200190929190505050610ffd565b005b6105f76111d9565b604051808273ffffffffffffffffffffffffffffffffffffffff1673ffffffffffffffffffffffffffffffffffffffff16815260200191505060405180910390f35b6107056004803603604081101561064f57600080fd5b810190808035906020019064010000000081111561066c57600080fd5b82018360208201111561067e57600080fd5b803590602001918460018302840111640100000000831117156106a057600080fd5b9091929391929390803590602001906401000000008111156106c157600080fd5b8201836020820111156106d357600080fd5b803590602001918460018302840111640100000000831117156106f557600080fd5b90919293919293905050506111ff565b005b61077e6004803603602081101561071d57600080fd5b810190808035906020019064010000000081111561073a57600080fd5b82018360208201111561074c57600080fd5b8035906020019184600183028401116401000000008311171561076e57600080fd5b9091929391929390505050611302565b604051808215151515815260200191505060405180910390f35b6107a0611344565b604051808273ffffffffffffffffffffffffffffffffffffffff1673ffffffffffffffffffffffffffffffffffffffff16815260200191505060405180910390f35b610859600480360360208110156107f857600080fd5b810190808035906020019064010000000081111561081557600080fd5b82018360208201111561082757600080fd5b8035906020019184600183028401116401000000008311171561084957600080fd5b909192939192939050505061136a565b6040518080602001828103825283818151815260200191508051906020019080838360005b8381101561089957808201518184015260208101905061087e565b50505050905090810190601f1680156108c65780820380516001836020036101000a031916815260200191505b509250505060405180910390f35b610955600480360360408110156108ea57600080fd5b810190808035906020019064010000000081111561090757600080fd5b82018360208201111561091957600080fd5b8035906020019184600183028401116401000000008311171561093b57600080fd5b909192939192939080359060200190929190505050611437565b005b6003818154811061096457fe5b906000526020600020016000915090508054600181600116156101000203166002900480601f016020809104026020016040519081016040528092919081815260200182805460018160011615610100020316600290048015610a085780601f106109dd57610100808354040283529160200191610a08565b820191906000526020600020905b8154815290600101906020018083116109eb57829003601f168201915b505050505081565b60008054600181600116156101000203166002900480601f016020809104026020016040519081016040528092919081815260200182805460018160011615610100020316600290048015610aa65780601f10610a7b57610100808354040283529160200191610aa6565b820191906000526020600020905b815481529060010190602001808311610a8957829003601f168201915b505050505081565b3360048585604051808383808284378083019250505092505050908152602001604051809103902060000160006101000a81548173ffffffffffffffffffffffffffffffffffffffff021916908373ffffffffffffffffffffffffffffffffffffffff16021790555083836004868660405180838380828437808301925050509250505090815260200160405180910390206001019190610b50929190611618565b5081816004868660405180838380828437808301925050509250505090815260200160405180910390206002019190610b8a929190611618565b50600060048585604051808383808284378083019250505092505050908152602001604051809103902060030181905550600060048585604051808383808284378083019250505092505050908152602001604051809103902060040160006101000a81548160ff02191690831515021790555050505050565b600160009054906101000a900473ffffffffffffffffffffffffffffffffffffffff1673ffffffffffffffffffffffffffffffffffffffff163373ffffffffffffffffffffffffffffffffffffffff1614610cc7576040517f08c379a00000000000000000000000000000000000000000000000000000000081526004018080602001828103825260188152602001807f63616c6c6572206d75737420626520746865206f776e6572000000000000000081525060200191505060405180910390fd5b8060048484604051808383808284378083019250505092505050908152602001604051809103902060030160008282540192505081905550600060048484604051808383808284378083019250505092505050908152602001604051809103902060040160006101000a81548160ff021916908315150217905550505050565b600060048383604051808383808284378083019250505092505050908152602001604051809103902060030154905092915050565b60606004838360405180838380828437808301925050509250505090815260200160405180910390206002018054600181600116156101000203166002900480601f016020809104026020016040519081016040528092919081815260200182805460018160011615610100020316600290048015610e3c5780601f10610e1157610100808354040283529160200191610e3c565b820191906000526020600020905b815481529060010190602001808311610e1f57829003601f168201915b5050505050905092915050565b600060048484604051808383808284378083019250505092505050908152602001604051809103902060030154905081811015610ed1576040517f08c379a00000000000000000000000000000000000000000000000000000000081526004018080602001828103825260218152602001806116be6021913960400191505060405180910390fd5b6000670de0b6b3a764000083029050600260009054906101000a900473ffffffffffffffffffffffffffffffffffffffff1673ffffffffffffffffffffffffffffffffffffffff1663a9059cbb33836040518363ffffffff1660e01b8152600401808373ffffffffffffffffffffffffffffffffffffffff1673ffffffffffffffffffffffffffffffffffffffff16815260200182815260200192505050602060405180830381600087803b158015610f8957600080fd5b505af1158015610f9d573d6000803e3d6000fd5b505050506040513d6020811015610fb357600080fd5b810190808051906020019092919050505050828203600486866040518083838082843780830192505050925050509081526020016040518091039020600301819055505050505050565b60008111611073576040517f08c379a00000000000000000000000000000000000000000000000000000000081526004018080602001828103825260128152602001807f616d6f756e742063616e6e6f742062652030000000000000000000000000000081525060200191505060405180910390fd5b6000670de0b6b3a764000082029050600260009054906101000a900473ffffffffffffffffffffffffffffffffffffffff1673ffffffffffffffffffffffffffffffffffffffff166323b872dd3330846040518463ffffffff1660e01b8152600401808473ffffffffffffffffffffffffffffffffffffffff1673ffffffffffffffffffffffffffffffffffffffff1681526020018373ffffffffffffffffffffffffffffffffffffffff1673ffffffffffffffffffffffffffffffffffffffff1681526020018281526020019350505050602060405180830381600087803b15801561115f57600080fd5b505af1158015611173573d6000803e3d6000fd5b505050506040513d602081101561118957600080fd5b810190808051906020019092919050505050816004858560405180838380828437808301925050509250505090815260200160405180910390206003016000828254019250508190555050505050565b600260009054906101000a900473ffffffffffffffffffffffffffffffffffffffff1681565b600160009054906101000a900473ffffffffffffffffffffffffffffffffffffffff1673ffffffffffffffffffffffffffffffffffffffff163373ffffffffffffffffffffffffffffffffffffffff16146112c2576040517f08c379a00000000000000000000000000000000000000000000000000000000081526004018080602001828103825260188152602001807f63616c6c6572206d75737420626520746865206f776e6572000000000000000081525060200191505060405180910390fd5b818160048686604051808383808284378083019250505092505050908152602001604051809103902060020191906112fb929190611618565b5050505050565b600060048383604051808383808284378083019250505092505050908152602001604051809103902060040160009054906101000a900460ff16905092915050565b600160009054906101000a900473ffffffffffffffffffffffffffffffffffffffff1681565b60606004838360405180838380828437808301925050509250505090815260200160405180910390206001018054600181600116156101000203166002900480601f01602080910402602001604051908101604052809291908181526020018280546001816001161561010002031660029004801561142a5780601f106113ff5761010080835404028352916020019161142a565b820191906000526020600020905b81548152906001019060200180831161140d57829003601f168201915b5050505050905092915050565b600160009054906101000a900473ffffffffffffffffffffffffffffffffffffffff1673ffffffffffffffffffffffffffffffffffffffff163373ffffffffffffffffffffffffffffffffffffffff16146114fa576040517f08c379a00000000000000000000000000000000000000000000000000000000081526004018080602001828103825260188152602001807f63616c6c6572206d75737420626520746865206f776e6572000000000000000081525060200191505060405180910390fd5b600060048484604051808383808284378083019250505092505050908152602001604051809103902060030154905081811161159e576040517f08c379a00000000000000000000000000000000000000000000000000000000081526004018080602001828103825260188152602001807f4e6f7420656e6f75676820636f696e7320746f20706c6179000000000000000081525060200191505060405180910390fd5b81810360048585604051808383808284378083019250505092505050908152602001604051809103902060030181905550600160048585604051808383808284378083019250505092505050908152602001604051809103902060040160006101000a81548160ff02191690831515021790555050505050565b828054600181600116156101000203166002900490600052602060002090601f016020900481019282601f1061165957803560ff1916838001178555611687565b82800160010185558215611687579182015b8281111561168657823582559160200191906001019061166b565b5b5090506116949190611698565b5090565b6116ba91905b808211156116b657600081600090555060010161169e565b5090565b9056fe43616e6e6f742073656c6c206d6f726520636f696e73207468616e206f776e6564a265627a7a7231582015eee984b54d7a56644dcd59b7b12f9ddeadee7d816f92c3325935bbb7428a9c64736f6c63430005100032",
  "source": "pragma solidity ^0.5.0;\r\n\r\nimport \"./DaiToken.sol\";\r\n// import \"@openzeppelin/contracts/token/ERC20/IERC20.sol\";\r\n\r\ncontract BSBack {\r\n    string public name = \"BS Backend\";\r\n    address public admin;\r\n    DaiToken public daiToken;\r\n    // address constant DAI = 0x6b175474e89094c44da98b954eedeac495271d0f;\r\n\r\n    string[] public allPlayers;\r\n\r\n    struct Player {\r\n        address payable wallet;\r\n        string username;\r\n        string password;\r\n        uint256 balance;\r\n        bool playing;\r\n    }\r\n    \r\n    mapping(string => Player) internal players;\r\n\r\n    constructor(DaiToken _daiToken) public {\r\n        admin = msg.sender;\r\n        daiToken = _daiToken;\r\n    }\r\n    \r\n    modifier onlyAdmin() {\r\n        // Only owner can call this function\r\n        require(msg.sender == admin, \"caller must be the owner\");\r\n        _;\r\n    }\r\n\r\n    function addUser(string calldata _username,string calldata _password) external {\r\n        players[_username].wallet = address(msg.sender);\r\n        players[_username].username = _username;\r\n        players[_username].password = _password;\r\n        players[_username].balance = 0;\r\n        players[_username].playing = false;\r\n    }\r\n\r\n    function buyCoins(string calldata _username, uint256 _amount) external {\r\n        // Require amount greater than 0\r\n        require(_amount > 0, \"amount cannot be 0\");\r\n\r\n        uint256 weiAmount = _amount * 1000000000000000000;\r\n\r\n        // Trasnfer Mock Dai tokens to this contract for staking\r\n        daiToken.transferFrom(msg.sender, address(this), weiAmount);\r\n\r\n        // Update staking balance\r\n        players[_username].balance += _amount;\r\n    }\r\n\r\n    // Unstaking Tokens (Withdraw)\r\n    function sellCoins(string calldata _username, uint256 _amount) external {\r\n        // Fetch staking balance\r\n        uint balance = players[_username].balance;\r\n\r\n        // Require amount greater than 0\r\n        require(balance >= _amount, \"Cannot sell more coins than owned\");\r\n\r\n        uint256 weiAmount = _amount * 1000000000000000000;\r\n\r\n        // Transfer Mock Dai tokens to this contract for staking\r\n        daiToken.transfer(msg.sender, weiAmount);\r\n\r\n        // Reset staking balance\r\n        players[_username].balance = balance - _amount;\r\n    }\r\n\r\n    function playGame(string calldata _username, uint _cost) external onlyAdmin() {\r\n        uint balance = players[_username].balance;\r\n        require(balance > _cost, \"Not enough coins to play\");\r\n        players[_username].balance = balance - _cost;\r\n        players[_username].playing = true;\r\n    }\r\n\r\n    function collectWinnings(string calldata _username, uint _amount) external onlyAdmin() {\r\n        players[_username].balance += _amount;\r\n        players[_username].playing = false;\r\n    }\r\n\r\n    function getUsername(string calldata _username) external view returns(string memory){\r\n        return players[_username].username;\r\n    }\r\n\r\n    function getPass(string calldata _username) external view returns(string memory){\r\n        return players[_username].password;\r\n    }\r\n\r\n    function setPass(string calldata _username, string calldata _pass) external onlyAdmin() {\r\n        players[_username].password = _pass;\r\n    }\r\n\r\n    function getBalance(string calldata _username) external view returns(uint){\r\n        return players[_username].balance;\r\n    }\r\n    function getPlaying(string calldata _username) external view returns(bool){\r\n        return players[_username].playing;\r\n    }\r\n}\r\n",
  "sourcePath": "C:/Users/kstam/workspace/Crypto-Wars/src/contracts/BSBack.sol",
  "compiler": {
    "name": "solc",
    "version": "0.5.16+commit.9c3226ce.Emscripten.clang"
  },
  "schemaVersion": "3.2.4",
  "updatedAt": "2020-11-01T14:41:46.998Z",
  "networkType": "ethereum",
  "devdoc": {
    "methods": {}
  },
  "userdoc": {
    "methods": {}
  }
}